:100000000C9434000C9451000C9451000C94510049
:100010000C9451000C9451000C9451000C9451001C
:100020000C9451000C9451000C9451000C9451000C
:100030000C9451000C9475010C9451000C945100D7
:100040000C9451000C9451000C9489010C94B7014C
:100050000C9451000C947F010C9451000C945100AD
:100060000C9451000C94510011241FBECFEFD8E026
:10007000DEBFCDBF11E0A0E0B1E0E6ECF3E002C0EE
:1000800005900D92A231B107D9F721E0A2E1B1E0CC
:1000900001C01D92A735B207E1F70E9448010C94F8
:1000A000E1010C94000085B1826085B985E08A95F4
:1000B000F1F7000085B18D7F85B90895CF93C82FE2
:1000C000662321F085B1816085B903C085B18E7F3B
:1000D00085B98AB180618AB98AB180628AB98AB1E8
:1000E00080648AB98AB180688AB98BB18F778BB9FD
:1000F0008BB18F7B8BB98BB18F7D8BB98BB18F7EA1
:100100008BB9CC231CF48BB180688BB9C6FF03C0BC
:100110008BB180648BB9C5FF03C08BB180628BB992
:10012000C4FF03C08BB180618BB90E9453008BB1B7
:100130008F778BB98BB18F7B8BB98BB18F7D8BB95F
:100140008BB18F7E8BB9C3FF03C08BB180688BB935
:10015000C2FF03C08BB180648BB9C1FF03C08BB1F8
:1001600080628BB9C0FF03C08BB180618BB90E94E4
:1001700053008BB180618BB98BB180628BB98BB12D
:1001800080648BB98BB180688BB987EB9BE001975A
:10019000F1F700C00000CF91089560E00E945E007A
:1001A0000895611104C080580E94CD0008958054C4
:1001B0000E94CD00089581E00E94CD00089561E085
:1001C0000E945E000895CF93DF93FC0103C00E945C
:1001D000DF00FE01EF01219680818111F8CFDF91D0
:1001E000CF910895CF93C82F84B1816084B98AB12B
:1001F00080628AB984B1826084B98AB180618AB927
:100200008AB180628AB98AB180648AB98AB1806809
:100210008AB98FEF99EF0197F1F700C000008BB119
:1002200080628BB98BB180618BB90E9453008FE1E2
:100230009EE40197F1F700C000000E9453008FEF89
:1002400090E00197F1F700C000000E9453008FEF8B
:1002500090E00197F1F700C000008BB18F7E8BB961
:100260000E9453008FEF90E00197F1F700C000006B
:1002700088E20E94CD0088E00E94CD000E94DB0051
:1002800086E00E94CD008C2F0E94CD00CF91089572
:100290008CE00E94F20060E081E00E94D10080E0EA
:1002A00091E00E94E30061E083E00E94D10087E0DA
:1002B00091E00E94E30060E088E00E94D1008CE0C1
:1002C00091E00E94E30060E08DE00E94D1008EE0AA
:1002D00091E00E94E30061E088E00E94D10080E1AB
:1002E00091E00E94E3007894FFCF1F920F920FB627
:1002F0000F9211240F900FBE0F901F9018951F9210
:100300000F920FB60F9211240F900FBE0F901F90F7
:1003100018951F920F920FB60F9211242F938F935F
:100320009F93EF93FF938091C0002091C6008C7142
:10033000E0911401EF5FEF7190911301E91739F02B
:10034000E0931401F0E0E95EFE4F208301C082E0FB
:1003500090911201892B80931201FF91EF919F914F
:100360008F912F910F900FBE0F901F9018951F9295
:100370000F920FB60F9211248F939F93EF93FF93D9
:100380009091160180911501981769F0E09115017F
:10039000EF5FEF71E0931501F0E0E95CFE4F8081C3
:1003A0008093C60005C0E1ECF0E080818F7D808302
:1003B000FF91EF919F918F910F900FBE0F901F9023
:0603C0001895F894FFCF30
:1003C60076616C75653A006B65793A00610062008A
:0203D6006300C2
:00000001FF
