S00F000030372D756172742E73726563C5
S11300000C9434000C9451000C9451000C94510045
S11300100C9451000C9451000C9451000C94510018
S11300200C9451000C9451000C9451000C94510008
S11300300C9451000C94AB010C9451000C9451009D
S11300400C9451000C9451000C94E0020C940E0397
S11300500C9451000C94C0010C9451000C94510068
S11300600C9451000C94510011241FBECFEFD8E022
S1130070DEBFCDBF11E0A0E0B1E0E8E5F7E002C0EB
S113008005900D92AE33B107D9F721E0AEE3B1E0AC
S113009001C01D92A338B207E1F70E9448010C94F5
S11300A0AA030C94000085B1826085B985E08A9525
S11300B0F1F7000085B18D7F85B90895CF93C82FDE
S11300C0662321F085B1816085B903C085B18E7F37
S11300D085B98AB180618AB98AB180628AB98AB1E4
S11300E080648AB98AB180688AB98BB18F778BB9F9
S11300F08BB18F7B8BB98BB18F7D8BB98BB18F7E9D
S11301008BB9CC231CF48BB180688BB9C6FF03C0B8
S11301108BB180648BB9C5FF03C08BB180628BB98E
S1130120C4FF03C08BB180618BB90E9453008BB1B3
S11301308F778BB98BB18F7B8BB98BB18F7D8BB95B
S11301408BB18F7E8BB9C3FF03C08BB180688BB931
S1130150C2FF03C08BB180648BB9C1FF03C08BB1F4
S113016080628BB9C0FF03C08BB180618BB90E94E0
S113017053008BB180618BB98BB180628BB98BB129
S113018080648BB98BB180688BB987EB9BE0019756
S1130190F1F700C00000CF91089560E00E945E0076
S11301A00895611104C080580E94CD0008958054C0
S11301B00E94CD00089581E00E94CD00089561E081
S11301C00E945E000895CF93DF93FC0103C00E9458
S11301D0DF00FE01EF01219680818111F8CFDF91CC
S11301E0CF910895CF93C82F84B1816084B98AB127
S11301F080628AB984B1826084B98AB180618AB923
S11302008AB180628AB98AB180648AB98AB1806805
S11302108AB98FEF99EF0197F1F700C000008BB115
S113022080628BB98BB180618BB90E9453008FE1DE
S11302309EE40197F1F700C000000E9453008FEF85
S113024090E00197F1F700C000000E9453008FEF87
S113025090E00197F1F700C000008BB18F7E8BB95D
S11302600E9453008FEF90E00197F1F700C0000067
S113027088E20E94CD0088E00E94CD000E94DB004D
S113028086E00E94CD008C2F0E94CD00CF9108956E
S11302908CE00E94F20060E081E00E94D10080E0E6
S11302A091E00E94E30061E083E00E94D10087E0D6
S11302B091E00E94E30060E088E00E94D1008CE0BD
S11302C091E00E94E30060E08DE00E94D1008EE0A6
S11302D091E00E94E30061E088E00E94D10080E1A7
S11302E091E00E94E300ECE7F0E080818064808389
S11302F080818F7780838081877F808380818B7FDB
S1130300808380818D7F808380818E7F8083EAE7F4
S1130310F0E0808180688083808188608083808130
S11303208460808380818260808380818160808317
S1130330E1E8F0E080818B7F80838081836080832B
S1130340EFE6F0E080818160808387E690E00E94A0
S113035038037894FFCF1F920F920FB60F92112497
S11303608F93EF93FF93EAE7F0E0808180648083CA
S1130370FF91EF918F910F900FBE0F901F901895E2
S11303801F920F920FB60F9211240F931F932F9366
S11303903F934F935F936F937F938F939F93AF9309
S11303A0BF93EF93FF93CF93DF9300D000D0CDB7EB
S11303B0DEB780E390E39A8389839C838B8308E789
S11303C010E0F801808191814AE0BE016F5F7F4FA8
S11303D00E94750360E088E00E94D10089E191E009
S11303E00E94E30060E088E00E94D100CE01019603
S11303F00E94E300CE0101960E94680382E191E02D
S11304000E946803F8018081918140E1BE016F5F21
S11304107F4F0E94750360E08DE00E94D1008AE165
S113042091E00E94E30060E08DE00E94D100CE01E3
S113043001960E94E300CE0101960E94680382E1C6
S113044091E00E946803F8010081118142E0BE013D
S11304506F5F7F4FC8010E94750361E088E00E94CE
S1130460D10085E191E00E94E300CE0101960E9453
S1130470680382E191E00E9468030139F1E01F07FB
S113048038F4093C110598F50B351105F8F40DC045
S1130490093E83E0180720F409351240C8F149C029
S11304A00B31144008F456C066C061E088E00E9435
S11304B0D1008EE191E00E94E3008EE191E00E9480
S11304C0680382E191E00E94680359C061E088E01A
S11304D00E94D10084E291E00E94E30084E291E072
S11304E00E94680382E191E00E94680348C061E0D1
S11304F088E00E94D10087E291E00E94E30087E255
S113050091E00E94680382E191E00E94680337C091
S113051061E088E00E94D1008CE291E00E94E30057
S11305208CE291E00E94680382E191E00E946803FA
S113053026C061E088E00E94D10081E391E00E943E
S1130540E30081E391E00E94680382E191E00E946C
S1130550680315C061E088E00E94D10088E391E05F
S11305600E94E30088E391E00E94680382E191E045
S11305700E94680304C086E191E00E94E3008EE1DA
S113058091E00E94680382E191E00E9468030F9069
S11305900F900F900F90DF91CF91FF91EF91BF914A
S11305A0AF919F918F917F916F915F914F913F9107
S11305B02F911F910F910F900FBE0F901F901895C0
S11305C01F920F920FB60F9211242F938F939F9324
S11305D0EF93FF938091C0002091C6008C71E0914D
S11305E04001EF5FEF7190913F01E91739F0E0931B
S11305F04001F0E0ED5BFE4F208301C082E090916A
S11306003E01892B80933E01FF91EF919F918F9141
S11306102F910F900FBE0F901F9018951F920F925D
S11306200FB60F9211248F939F93EF93FF939091A2
S1130630420180914101981769F0E0914101EF5F17
S1130640EF71E0934101F0E0ED59FE4F808180931A
S1130650C60005C0E1ECF0E080818F7D8083FF91CE
S1130660EF919F918F910F900FBE0F901F9018954F
S113067010924201109241011092400110923F01E8
S1130680282F392F33231CF422E02093C0009078C4
S11306909093C5008093C40088E98093C10086E0EC
S11306A08093C2000895209142012F5F2F71909191
S11306B041012917E1F3E22FF0E0ED59FE4F808369
S11306C020934201E1ECF0E0808180628083089510
S11306D0CF93DF93EC0103C021960E9453038881DA
S11306E08111FACFDF91CF910895BB274A3031F4BD
S11306F0992322F4BDE2909581959F4F0C94810338
S1130700BB27FB015527AA27880F991FAA1FA417E7
S113071010F0A41B83955051B9F7A05DAA3308F0DB
S1130720A95DA193009779F7B111B1931192CB010F
S11307300C949A03DC01FC01672F71917723E1F794
S1130740329704C07C916D9370836291AE17BF079A
S10B0750C8F30895F894FFCFEB
S113075876616C75653A006B65793A0061006200F0
S113076863000D0A00202020202020202000726928
S113077867687400757000646F776E006C656674E2
S11107880073656C656374006E6F6E6500002F
S9030000FC
