S00C00006C6564732E7372656370
S11300000C9434000C943E000C943E000C943E007E
S11300100C943E000C943E000C943E000C943E0064
S11300200C943E000C943E000C943E000C943E0054
S11300300C943E000C943E000C943E000C943E0044
S11300400C943E000C943E000C943E000C943E0034
S11300500C943E000C943E000C943E000C943E0024
S11300600C943E000C943E0011241FBECFEFD8E048
S1130070DEBFCDBF0E9440000C9460000C940000D1
S113008084B1806284B987B1816087B98AB18F777E
S11300908AB98BB180688BB94F99FECF2FEF89E66F
S11300A098E1215080409040E1F700C0000098B1F1
S11300B081E0892788B995B180E2892785B9ECCF99
S10700C0F894FFCFDE
S9030000FC
