S012000030352D7365676D656E742E737265638D
S11300000C9434000C9451000C9451000C94510045
S11300100C9451000C9451000C9451000C94510018
S11300200C9451000C9451000C9451000C94510008
S11300300C9451000C9496000C9451000C945100B3
S11300400C94B3000C9451000C9451000C94510086
S11300500C9451000C9451000C9451000C945100D8
S11300600C9451000C94510011241FBECFEFD8E022
S1130070DEBFCDBF11E0A0E0B1E0E0E4F3E002C0F8
S113008005900D92A831B107D9F721E0A8E1B1E0BC
S113009001C01D92AB31B207E1F70E9478000C94C5
S11300A09E010C940000FC01408121E030E002C07C
S11300B0220F331F6A95E2F7242B20830895FC0155
S11300C0908121E030E002C0220F331F6A95E2F7ED
S11300D02095292320830895FC01408121E030E00C
S11300E002C0220F331F6A95E2F7242B2083089560
S11300F00E94FD000E947A01E1E8F0E080818C7F9B
S1130100808380818460808385B58A7F85BD85B541
S1130110826085BDEFE6F0E0808181608083EEE659
S1130120F0E08081816080837894FFCF1F920F92EA
S11301300FB60F9211248F939F9380911901909180
S11301401A01019690931A0180931901CC9721F416
S113015010921A01109219019F918F910F900FBE66
S11301600F901F9018951F920F920FB60F921124A3
S11301702F933F934F935F936F937F938F939F93AB
S1130180AF93BF93EF93FF9340911801242F30E076
S1130190F9013196EE0FFF1FE25FFE4F608171811E
S11301A08091190190911A010E948A01220F331F34
S11301B0F901E25FFE4F608171810E948A01862FFE
S11301C0642F0E940D01809118018F5F80931801A4
S11301D0843011F410921801FF91EF91BF91AF9107
S11301E09F918F917F916F915F914F913F912F914B
S11301F00F900FBE0F901F90189564E08AE290E074
S11302000E94530067E08AE290E00E94530060E09D
S113021084E290E00E94530008951F93CF93DF93EC
S1130220E82FF0E0EC5FFE4F1081E62FF0E0E050A5
S1130230FF4FD08164E08BE290E00E945F0067E0B2
S11302408BE290E00E945F0060E085E290E00E9413
S11302505F0085E08A95F1F70000C0E01CC010FD46
S113026003C085B18E7F02C085B1816085B985E008
S11302708A95F1F7000067E08BE290E00E946C0041
S113028085E08A95F1F7000067E08BE290E00E9438
S11302905F001695CF5FC83010F3C0E01CC0D0FDDE
S11302A003C085B18E7F02C085B1816085B985E0C8
S11302B08A95F1F7000067E08BE290E00E946C0001
S11302C085E08A95F1F7000067E08BE290E00E94F8
S11302D05F00D695CF5FC83010F364E08BE290E006
S11302E00E946C0085E08A95F1F70000DF91CF91C0
S11302F01F910895CF93C0E009C0EC2FF0E0E050C7
S1130300FF4F60818FEF0E940D01CF5FC430A8F3CF
S1130310CF910895AA1BBB1B51E107C0AA1FBB1FA5
S1130320A617B70710F0A61BB70B881F991F5A957D
S1130330A9F780959095BC01CD010895F894FFCF5D
S113034010204080039F250D9949411F0119010088
S10B03500A006400E803102711
S9030000FC
