:100000000C9434000C9451000C9451000C94510049
:100010000C9451000C9451000C9451000C9451001C
:100020000C9451000C945F010C9451000C945100FD
:100030000C9451000C9451000C9451000C945100FC
:100040000C9451000C9451000C9451000C945100EC
:100050000C9451000C9451000C9451000C945100DC
:100060000C9451000C94510011241FBECFEFD8E026
:10007000DEBFCDBF11E0A0E0B1E0ECECF4E002C0E7
:1000800005900D92A830B107D9F721E0A8E0B1E0C2
:1000900001C01D92AD30B207E1F70E9448010C94F7
:1000A00064020C94000085B1826085B985E08A9570
:1000B000F1F7000085B18D7F85B90895CF93C82FE2
:1000C000662321F085B1816085B903C085B18E7F3B
:1000D00085B98AB180618AB98AB180628AB98AB1E8
:1000E00080648AB98AB180688AB98BB18F778BB9FD
:1000F0008BB18F7B8BB98BB18F7D8BB98BB18F7EA1
:100100008BB9CC231CF48BB180688BB9C6FF03C0BC
:100110008BB180648BB9C5FF03C08BB180628BB992
:10012000C4FF03C08BB180618BB90E9453008BB1B7
:100130008F778BB98BB18F7B8BB98BB18F7D8BB95F
:100140008BB18F7E8BB9C3FF03C08BB180688BB935
:10015000C2FF03C08BB180648BB9C1FF03C08BB1F8
:1001600080628BB9C0FF03C08BB180618BB90E94E4
:1001700053008BB180618BB98BB180628BB98BB12D
:1001800080648BB98BB180688BB987EB9BE001975A
:10019000F1F700C00000CF91089560E00E945E007A
:1001A0000895611104C080580E94CD0008958054C4
:1001B0000E94CD00089581E00E94CD00089561E085
:1001C0000E945E000895CF93DF93FC0103C00E945C
:1001D000DF00FE01EF01219680818111F8CFDF91D0
:1001E000CF910895CF93C82F84B1816084B98AB12B
:1001F00080628AB984B1826084B98AB180618AB927
:100200008AB180628AB98AB180648AB98AB1806809
:100210008AB98FEF99EF0197F1F700C000008BB119
:1002200080628BB98BB180618BB90E9453008FE1E2
:100230009EE40197F1F700C000000E9453008FEF89
:1002400090E00197F1F700C000000E9453008FEF8B
:1002500090E00197F1F700C000008BB18F7E8BB961
:100260000E9453008FEF90E00197F1F700C000006B
:1002700088E20E94CD0088E00E94CD000E94DB0051
:1002800086E00E94CD008C2F0E94CD00CF91089572
:100290008CE00E94F20060E081E00E94D10080E0EA
:1002A00091E00E94E300E1EBF0E0808187608083D1
:1002B000E0E7F0E08081816080837894FFCF1F9237
:1002C0000F920FB60F9211242F933F934F935F938A
:1002D0006F937F938F939F93AF93BF93EF93FF930E
:1002E000CF93DF93CDB7DEB72897DEBFCDBF80E2D7
:1002F00090E29A8389839C838B831D829F838E8364
:10030000188680910C018F5F80930C01863008F471
:100310008DC010920C0180910B018F5F80930B01B7
:10032000893011F410920B0180910A018F5F809344
:100330000A018A3039F4809109018F5F80930901A5
:1003400010920A01809109018C3359F480910801BF
:100350008F5F809308018C3311F410920801109282
:10036000090180910B014AE0BE016F5F7F4F90E071
:100370000E942F02809109014AE0BE016D5F7F4F0C
:1003800090E00E942F02809108014AE0BE016A5F5E
:100390007F4F90E00E942F0260E086E00E94D10033
:1003A00084E091E00E94E30060E087E00E94D100D9
:1003B000CE0101960E94E300809109018A3088F401
:1003C00060E084E00E94D10086E091E00E94E300BA
:1003D00060E085E00E94D100CE0103960E94E30018
:1003E00008C060E084E00E94D100CE0103960E9424
:1003F000E300809108018A3088F460E081E00E9487
:10040000D10086E091E00E94E30060E082E00E947B
:10041000D100CE0106960E94E30008C060E081E0B2
:100420000E94D100CE0106960E94E30028960FB6E6
:10043000F894DEBF0FBECDBFDF91CF91FF91EF915A
:10044000BF91AF919F918F917F916F915F914F91EC
:100450003F912F910F900FBE0F901F901895BB27C3
:100460004A3031F4992322F4BDE2909581959F4F53
:100470000C943B02BB27FB015527AA27880F991F25
:10048000AA1FA41710F0A41B83955051B9F7A05DC3
:10049000AA3308F0A95DA193009779F7B111B19340
:1004A0001192CB010C945402DC01FC01672F719175
:1004B0007723E1F7329704C07C916D93708362914A
:0C04C000AE17BF07C8F30895F894FFCFF3
:0804CC0030203A002E00300040
:00000001FF
