:100000000C9434000C943E000C943E000C943E0082
:100010000C943E000C943E000C943E000C943E0068
:100020000C943E000C943E000C943E000C943E0058
:100030000C943E000C943E000C943E000C943E0048
:100040000C943E000C943E000C943E000C943E0038
:100050000C943E000C943E000C943E000C943E0028
:100060000C943E000C943E0011241FBECFEFD8E04C
:10007000DEBFCDBF0E9440000C9482020C940000B1
:1000800084B1806284B985B18F7D85B92FEF3FE05F
:1000900087E2215030408040E1F700C000009FEF30
:1000A0002FE037E2915020403040E1F700C00000DF
:1000B00095B180E2982795B99FEF29E638E19150F4
:1000C00020403040E1F700C0000095B19F7D95B918
:1000D0009FEF22E537E0915020403040E1F700C02B
:1000E000000095B1982795B99FEF29E638E1915026
:1000F00020403040E1F700C0000095B19F7D95B9E8
:100100009FEF2FE037E2915020403040E1F700C0F0
:10011000000095B1982795B99FEF29E638E19150F5
:1001200020403040E1F700C0000095B19F7D95B9B7
:100130009FEF22E537E0915020403040E1F700C0CA
:10014000000095B1982795B99FEF29E638E19150C5
:1001500020403040E1F700C0000095B19F7D95B987
:100160009FEF22E537E0915020403040E1F700C09A
:10017000000095B1982795B99FEF29E638E1915095
:1001800020403040E1F700C0000095B19F7D95B957
:100190009FEF2FE037E2915020403040E1F700C060
:1001A000000095B1982795B99FEF24E33CE091506A
:1001B00020403040E1F700C0000095B19F7D95B927
:1001C0009FEF22E537E0915020403040E1F700C03A
:1001D000000095B1982795B99FEF29E638E1915035
:1001E00020403040E1F700C0000095B19F7D95B9F7
:1001F0009FEF22E537E0915020403040E1F700C00A
:10020000000095B1982795B99FEF24E33CE0915009
:1002100020403040E1F700C0000095B19F7D95B9C6
:100220009FEF2FE037E2915020403040E1F700C0CF
:10023000000095B1982795B99FEF24E33CE09150D9
:1002400020403040E1F700C0000095B19F7D95B996
:100250009FEF22E537E0915020403040E1F700C0A9
:10026000000095B1982795B99FEF24E33CE09150A9
:1002700020403040E1F700C0000095B19F7D95B966
:100280009FEF22E537E0915020403040E1F700C079
:10029000000095B1982795B99FEF24E33CE0915079
:1002A00020403040E1F700C0000095B19F7D95B936
:1002B0009FEF2FE037E2915020403040E1F700C03F
:1002C000000095B1982795B99FEF24E33CE0915049
:1002D00020403040E1F700C0000095B19F7D95B906
:1002E0009FEF2FE037E2915020403040E1F700C00F
:1002F000000095B1982795B99FEF29E638E1915014
:1003000020403040E1F700C0000095B19F7D95B9D5
:100310009FEF22E537E0915020403040E1F700C0E8
:10032000000095B1982795B99FEF24E33CE09150E8
:1003300020403040E1F700C0000095B19F7D95B9A5
:100340009FEF22E537E0915020403040E1F700C0B8
:10035000000095B1982795B99FEF29E638E19150B3
:1003600020403040E1F700C0000095B19F7D95B975
:100370009FEF22E537E0915020403040E1F700C088
:10038000000095B1982795B99FEF24E33CE0915088
:1003900020403040E1F700C0000095B19F7D95B945
:1003A0009FEF2FE037E2915020403040E1F700C04E
:1003B000000095B1982795B99FEF29E638E1915053
:1003C00020403040E1F700C0000095B19F7D95B915
:1003D0009FEF22E537E0915020403040E1F700C028
:1003E000000095B1982795B99FEF29E638E1915023
:1003F00020403040E1F700C0000095B19F7D95B9E5
:100400009FEF22E537E0915020403040E1F700C0F7
:10041000000095B1982795B99FEF29E638E19150F2
:1004200020403040E1F700C0000095B19F7D95B9B4
:100430009FEF2FE037E2915020403040E1F700C0BD
:10044000000095B1982795B99FEF29E638E19150C2
:1004500020403040E1F700C0000095B19F7D95B984
:100460009FEF22E537E0915020403040E1F700C097
:10047000000095B1982795B99FEF24E33CE0915097
:1004800020403040E1F700C0000095B19F7D95B954
:100490009FEF22E537E0915020403040E1F700C067
:1004A000000095B1982795B99FEF24E33CE0915067
:1004B00020403040E1F700C0000095B19F7D95B924
:1004C0009FEF2FE037E2915020403040E1F700C02D
:1004D000000095B1892785B98FEF94E32CE0815016
:1004E00090402040E1F700C0000085B18F7D85B9C4
:1004F0003FEF8FE097E2315080409040E1F700C03D
:080500000000C4CDF894FFCF08
:00000001FF
