S00E000030382D6932432E73726563A3
S11300000C9434000C9451000C9451000C94510045
S11300100C9451000C9451000C9451000C94510018
S11300200C9451000C9451000C9451000C94510008
S11300300C9451000C946C000C9451000C945100DD
S11300400C9451000C9451000C943C010C946A01E2
S11300500C9451000C9451000C9451000C945100D8
S11300600C9451000C94510011241FBECFEFD8E022
S1130070DEBFCDBF11E0A0E0B1E0E0E1F4E002C0FA
S113008005900D92A036B107D9F721E0A0E6B1E0C2
S113009001C01D92A53AB207E1F70E9453000C94E7
S11300A006020C9400000E94020187E690E00E9480
S11300B09401E1E8F0E080818A7F8083808182601E
S11300C08083EFE6F0E0808181608083789482E031
S11300D091E00E94C401FFCF1F920F920FB60F92BE
S11300E011242F933F934F935F936F937F938F9339
S11300F09F93AF93BF93EF93FF93CF93DF9300D07E
S1130100CDB7DEB780E390E39A83898380910101C0
S11301108230E1F0833009F440C0813009F056C0E8
S11301208091000191E0980F9093000188508E36E1
S113013018F482E080930101983708F44EC01092BD
S1130140000180E291E00E94C40147C08091000157
S1130150880F0E941101813019F491E090930101FC
S1130160811118C00E942E014AE0BE016F5F7F4FCB
S113017090E00E94D10189E391E00E94C401CE0184
S113018001960E94C40186E391E00E94C40183E0C9
S1130190809301010E94380120C0809100014AE04F
S11301A0BE016F5F7F4F90E00E94D10180E491E037
S11301B00E94C401CE0101960E94C40186E391E02D
S11301C00E94C40181E08093010107C081E0809313
S11301D0010189E491E00E94C4010F900F90DF9126
S11301E0CF91FF91EF91BF91AF919F918F917F91AB
S11301F06F915F914F913F912F910F900FBE0F9090
S11302001F90189587B18F7C87B988B1806388B9AE
S1130210E9EBF0E080818C7F808388E98093B800EB
S1130220089594EA9093BC009091BC009923E4F75C
S11302308093BB0084E88093BC008091BC00882339
S1130240E4F78091B900887F883121F0803421F46B
S113025080E0089580E0089581E0089584EC80931F
S1130260BC008091BC008823E4F78091BB00089512
S113027084E98093BC0008951F920F920FB60F92E9
S113028011242F938F939F93EF93FF938091C0003A
S11302902091C6008C71E0916201EF5FEF71909143
S11302A06101E91739F0E0936201F0E0EB59FE4F88
S11302B0208301C082E090916001892B80936001CA
S11302C0FF91EF919F918F912F910F900FBE0F90FF
S11302D01F9018951F920F920FB60F9211248F93AF
S11302E09F93EF93FF93909164018091630198171A
S11302F069F0E0916301EF5FEF71E0936301F0E077
S1130300EB57FE4F80818093C60005C0E1ECF0E01E
S113031080818F7D8083FF91EF919F918F910F90CA
S11303200FBE0F901F9018951092640110926301F4
S11303301092620110926101282F392F33231CF48B
S113034022E02093C00090789093C5008093C4006D
S113035088E98093C10086E08093C20008952091CB
S113036064012F5F2F71909163012917E1F3E22F4C
S1130370F0E0EB57FE4F808320936401E1ECF0E062
S11303808081806280830895CF93DF93EC0103C062
S113039021960E94AF0188818111FACFDF91CF911C
S11303A00895BB274A3031F4992322F4BDE2909595
S11303B081959F4F0C94DD01BB27FB015527AA278C
S11303C0880F991FAA1FA41710F0A41B83955051DE
S11303D0B9F7A05DAA3308F0A95DA193009779F756
S11303E0B111B1931192CB010C94F601DC01FC0123
S11303F0672F71917723E1F7329704C07C916D9355
S113040070836291AE17BF07C8F30895F894FFCFC5
S113041007010D0A5363616E204932432D627573DF
S113042020666F7220646576696365733A0D0A000D
S11304300D0A2A2A2A5363616E20636F6D706C65FE
S11304407465642A2A2A0D0A00646174613A2000E2
S11304506164726573733A2000536F6D65746869E3
S11304606E672077656E742077726F6E6721000067
S9030000FC
